{
  "abi": [
    {
      "type": "constructor",
      "inputs": [
        {
          "name": "_initialOwner",
          "type": "address",
          "internalType": "address"
        },
        {
          "name": "_tokenName",
          "type": "string",
          "internalType": "string"
        },
        {
          "name": "_tokenSymbol",
          "type": "string",
          "internalType": "string"
        },
        {
          "name": "_totalAmount",
          "type": "uint256",
          "internalType": "uint256"
        },
        {
          "name": "_endTime",
          "type": "uint256",
          "internalType": "uint256"
        },
        {
          "name": "_numOfTotalAllotments",
          "type": "uint256",
          "internalType": "uint256"
        }
      ],
      "stateMutability": "nonpayable"
    },
    {
      "type": "function",
      "name": "DOMAIN_SEPARATOR",
      "inputs": [],
      "outputs": [
        {
          "name": "",
          "type": "bytes32",
          "internalType": "bytes32"
        }
      ],
      "stateMutability": "view"
    },
    {
      "type": "function",
      "name": "_entropyCallback",
      "inputs": [
        {
          "name": "sequence",
          "type": "uint64",
          "internalType": "uint64"
        },
        {
          "name": "provider",
          "type": "address",
          "internalType": "address"
        },
        {
          "name": "randomNumber",
          "type": "bytes32",
          "internalType": "bytes32"
        }
      ],
      "outputs": [],
      "stateMutability": "nonpayable"
    },
    {
      "type": "function",
      "name": "allowance",
      "inputs": [
        {
          "name": "owner",
          "type": "address",
          "internalType": "address"
        },
        {
          "name": "spender",
          "type": "address",
          "internalType": "address"
        }
      ],
      "outputs": [
        {
          "name": "",
          "type": "uint256",
          "internalType": "uint256"
        }
      ],
      "stateMutability": "view"
    },
    {
      "type": "function",
      "name": "approve",
      "inputs": [
        {
          "name": "spender",
          "type": "address",
          "internalType": "address"
        },
        {
          "name": "value",
          "type": "uint256",
          "internalType": "uint256"
        }
      ],
      "outputs": [
        {
          "name": "",
          "type": "bool",
          "internalType": "bool"
        }
      ],
      "stateMutability": "nonpayable"
    },
    {
      "type": "function",
      "name": "balanceOf",
      "inputs": [
        {
          "name": "account",
          "type": "address",
          "internalType": "address"
        }
      ],
      "outputs": [
        {
          "name": "",
          "type": "uint256",
          "internalType": "uint256"
        }
      ],
      "stateMutability": "view"
    },
    {
      "type": "function",
      "name": "burn",
      "inputs": [
        {
          "name": "value",
          "type": "uint256",
          "internalType": "uint256"
        }
      ],
      "outputs": [],
      "stateMutability": "nonpayable"
    },
    {
      "type": "function",
      "name": "burnFrom",
      "inputs": [
        {
          "name": "account",
          "type": "address",
          "internalType": "address"
        },
        {
          "name": "value",
          "type": "uint256",
          "internalType": "uint256"
        }
      ],
      "outputs": [],
      "stateMutability": "nonpayable"
    },
    {
      "type": "function",
      "name": "calculateResultRandomly",
      "inputs": [],
      "outputs": [],
      "stateMutability": "payable"
    },
    {
      "type": "function",
      "name": "decimals",
      "inputs": [],
      "outputs": [
        {
          "name": "",
          "type": "uint8",
          "internalType": "uint8"
        }
      ],
      "stateMutability": "view"
    },
    {
      "type": "function",
      "name": "eip712Domain",
      "inputs": [],
      "outputs": [
        {
          "name": "fields",
          "type": "bytes1",
          "internalType": "bytes1"
        },
        {
          "name": "name",
          "type": "string",
          "internalType": "string"
        },
        {
          "name": "version",
          "type": "string",
          "internalType": "string"
        },
        {
          "name": "chainId",
          "type": "uint256",
          "internalType": "uint256"
        },
        {
          "name": "verifyingContract",
          "type": "address",
          "internalType": "address"
        },
        {
          "name": "salt",
          "type": "bytes32",
          "internalType": "bytes32"
        },
        {
          "name": "extensions",
          "type": "uint256[]",
          "internalType": "uint256[]"
        }
      ],
      "stateMutability": "view"
    },
    {
      "type": "function",
      "name": "getEndTime",
      "inputs": [],
      "outputs": [],
      "stateMutability": "view"
    },
    {
      "type": "function",
      "name": "launch",
      "inputs": [
        {
          "name": "newUrl",
          "type": "string",
          "internalType": "string"
        }
      ],
      "outputs": [],
      "stateMutability": "nonpayable"
    },
    {
      "type": "function",
      "name": "mint",
      "inputs": [
        {
          "name": "to",
          "type": "address",
          "internalType": "address"
        },
        {
          "name": "amount",
          "type": "uint256",
          "internalType": "uint256"
        }
      ],
      "outputs": [],
      "stateMutability": "nonpayable"
    },
    {
      "type": "function",
      "name": "mintWithPYUSD",
      "inputs": [
        {
          "name": "pyusdAmount",
          "type": "uint256",
          "internalType": "uint256"
        }
      ],
      "outputs": [],
      "stateMutability": "nonpayable"
    },
    {
      "type": "function",
      "name": "name",
      "inputs": [],
      "outputs": [
        {
          "name": "",
          "type": "string",
          "internalType": "string"
        }
      ],
      "stateMutability": "view"
    },
    {
      "type": "function",
      "name": "nonces",
      "inputs": [
        {
          "name": "owner",
          "type": "address",
          "internalType": "address"
        }
      ],
      "outputs": [
        {
          "name": "",
          "type": "uint256",
          "internalType": "uint256"
        }
      ],
      "stateMutability": "view"
    },
    {
      "type": "function",
      "name": "owner",
      "inputs": [],
      "outputs": [
        {
          "name": "",
          "type": "address",
          "internalType": "address"
        }
      ],
      "stateMutability": "view"
    },
    {
      "type": "function",
      "name": "pause",
      "inputs": [],
      "outputs": [],
      "stateMutability": "nonpayable"
    },
    {
      "type": "function",
      "name": "paused",
      "inputs": [],
      "outputs": [
        {
          "name": "",
          "type": "bool",
          "internalType": "bool"
        }
      ],
      "stateMutability": "view"
    },
    {
      "type": "function",
      "name": "permit",
      "inputs": [
        {
          "name": "owner",
          "type": "address",
          "internalType": "address"
        },
        {
          "name": "spender",
          "type": "address",
          "internalType": "address"
        },
        {
          "name": "value",
          "type": "uint256",
          "internalType": "uint256"
        },
        {
          "name": "deadline",
          "type": "uint256",
          "internalType": "uint256"
        },
        {
          "name": "v",
          "type": "uint8",
          "internalType": "uint8"
        },
        {
          "name": "r",
          "type": "bytes32",
          "internalType": "bytes32"
        },
        {
          "name": "s",
          "type": "bytes32",
          "internalType": "bytes32"
        }
      ],
      "outputs": [],
      "stateMutability": "nonpayable"
    },
    {
      "type": "function",
      "name": "pyusd",
      "inputs": [],
      "outputs": [
        {
          "name": "",
          "type": "address",
          "internalType": "contract IERC20"
        }
      ],
      "stateMutability": "view"
    },
    {
      "type": "function",
      "name": "refund",
      "inputs": [],
      "outputs": [],
      "stateMutability": "nonpayable"
    },
    {
      "type": "function",
      "name": "renounceOwnership",
      "inputs": [],
      "outputs": [],
      "stateMutability": "nonpayable"
    },
    {
      "type": "function",
      "name": "stakeForAllotment",
      "inputs": [
        {
          "name": "numberOfLots",
          "type": "uint256",
          "internalType": "uint256"
        }
      ],
      "outputs": [],
      "stateMutability": "nonpayable"
    },
    {
      "type": "function",
      "name": "symbol",
      "inputs": [],
      "outputs": [
        {
          "name": "",
          "type": "string",
          "internalType": "string"
        }
      ],
      "stateMutability": "view"
    },
    {
      "type": "function",
      "name": "totalSupply",
      "inputs": [],
      "outputs": [
        {
          "name": "",
          "type": "uint256",
          "internalType": "uint256"
        }
      ],
      "stateMutability": "view"
    },
    {
      "type": "function",
      "name": "transfer",
      "inputs": [
        {
          "name": "to",
          "type": "address",
          "internalType": "address"
        },
        {
          "name": "value",
          "type": "uint256",
          "internalType": "uint256"
        }
      ],
      "outputs": [
        {
          "name": "",
          "type": "bool",
          "internalType": "bool"
        }
      ],
      "stateMutability": "nonpayable"
    },
    {
      "type": "function",
      "name": "transferFrom",
      "inputs": [
        {
          "name": "from",
          "type": "address",
          "internalType": "address"
        },
        {
          "name": "to",
          "type": "address",
          "internalType": "address"
        },
        {
          "name": "value",
          "type": "uint256",
          "internalType": "uint256"
        }
      ],
      "outputs": [
        {
          "name": "",
          "type": "bool",
          "internalType": "bool"
        }
      ],
      "stateMutability": "nonpayable"
    },
    {
      "type": "function",
      "name": "transferOwnership",
      "inputs": [
        {
          "name": "newOwner",
          "type": "address",
          "internalType": "address"
        }
      ],
      "outputs": [],
      "stateMutability": "nonpayable"
    },
    {
      "type": "function",
      "name": "unpause",
      "inputs": [],
      "outputs": [],
      "stateMutability": "nonpayable"
    },
    {
      "type": "function",
      "name": "withdrawByOwnerAndRefund",
      "inputs": [],
      "outputs": [],
      "stateMutability": "nonpayable"
    },
    {
      "type": "event",
      "name": "Approval",
      "inputs": [
        {
          "name": "owner",
          "type": "address",
          "indexed": true,
          "internalType": "address"
        },
        {
          "name": "spender",
          "type": "address",
          "indexed": true,
          "internalType": "address"
        },
        {
          "name": "value",
          "type": "uint256",
          "indexed": false,
          "internalType": "uint256"
        }
      ],
      "anonymous": false
    },
    {
      "type": "event",
      "name": "EIP712DomainChanged",
      "inputs": [],
      "anonymous": false
    },
    {
      "type": "event",
      "name": "Launch",
      "inputs": [
        {
          "name": "newUrl",
          "type": "string",
          "indexed": true,
          "internalType": "string"
        }
      ],
      "anonymous": false
    },
    {
      "type": "event",
      "name": "MintedWithPYUSD",
      "inputs": [
        {
          "name": "buyer",
          "type": "address",
          "indexed": true,
          "internalType": "address"
        },
        {
          "name": "pyusdAmount",
          "type": "uint256",
          "indexed": false,
          "internalType": "uint256"
        },
        {
          "name": "mintedTokens",
          "type": "uint256",
          "indexed": false,
          "internalType": "uint256"
        }
      ],
      "anonymous": false
    },
    {
      "type": "event",
      "name": "OwnershipTransferred",
      "inputs": [
        {
          "name": "previousOwner",
          "type": "address",
          "indexed": true,
          "internalType": "address"
        },
        {
          "name": "newOwner",
          "type": "address",
          "indexed": true,
          "internalType": "address"
        }
      ],
      "anonymous": false
    },
    {
      "type": "event",
      "name": "Paused",
      "inputs": [
        {
          "name": "account",
          "type": "address",
          "indexed": false,
          "internalType": "address"
        }
      ],
      "anonymous": false
    },
    {
      "type": "event",
      "name": "RequestResultCalculation",
      "inputs": [
        {
          "name": "sequenceNumber",
          "type": "uint64",
          "indexed": true,
          "internalType": "uint64"
        }
      ],
      "anonymous": false
    },
    {
      "type": "event",
      "name": "Transfer",
      "inputs": [
        {
          "name": "from",
          "type": "address",
          "indexed": true,
          "internalType": "address"
        },
        {
          "name": "to",
          "type": "address",
          "indexed": true,
          "internalType": "address"
        },
        {
          "name": "value",
          "type": "uint256",
          "indexed": false,
          "internalType": "uint256"
        }
      ],
      "anonymous": false
    },
    {
      "type": "event",
      "name": "Unpaused",
      "inputs": [
        {
          "name": "account",
          "type": "address",
          "indexed": false,
          "internalType": "address"
        }
      ],
      "anonymous": false
    },
    {
      "type": "event",
      "name": "WinnerSelected",
      "inputs": [
        {
          "name": "winner",
          "type": "address",
          "indexed": true,
          "internalType": "address"
        },
        {
          "name": "movieAddress",
          "type": "address",
          "indexed": true,
          "internalType": "address"
        }
      ],
      "anonymous": false
    },
    {
      "type": "error",
      "name": "ECDSAInvalidSignature",
      "inputs": []
    },
    {
      "type": "error",
      "name": "ECDSAInvalidSignatureLength",
      "inputs": [
        {
          "name": "length",
          "type": "uint256",
          "internalType": "uint256"
        }
      ]
    },
    {
      "type": "error",
      "name": "ECDSAInvalidSignatureS",
      "inputs": [
        {
          "name": "s",
          "type": "bytes32",
          "internalType": "bytes32"
        }
      ]
    },
    {
      "type": "error",
      "name": "ERC20InsufficientAllowance",
      "inputs": [
        {
          "name": "spender",
          "type": "address",
          "internalType": "address"
        },
        {
          "name": "allowance",
          "type": "uint256",
          "internalType": "uint256"
        },
        {
          "name": "needed",
          "type": "uint256",
          "internalType": "uint256"
        }
      ]
    },
    {
      "type": "error",
      "name": "ERC20InsufficientBalance",
      "inputs": [
        {
          "name": "sender",
          "type": "address",
          "internalType": "address"
        },
        {
          "name": "balance",
          "type": "uint256",
          "internalType": "uint256"
        },
        {
          "name": "needed",
          "type": "uint256",
          "internalType": "uint256"
        }
      ]
    },
    {
      "type": "error",
      "name": "ERC20InvalidApprover",
      "inputs": [
        {
          "name": "approver",
          "type": "address",
          "internalType": "address"
        }
      ]
    },
    {
      "type": "error",
      "name": "ERC20InvalidReceiver",
      "inputs": [
        {
          "name": "receiver",
          "type": "address",
          "internalType": "address"
        }
      ]
    },
    {
      "type": "error",
      "name": "ERC20InvalidSender",
      "inputs": [
        {
          "name": "sender",
          "type": "address",
          "internalType": "address"
        }
      ]
    },
    {
      "type": "error",
      "name": "ERC20InvalidSpender",
      "inputs": [
        {
          "name": "spender",
          "type": "address",
          "internalType": "address"
        }
      ]
    },
    {
      "type": "error",
      "name": "ERC2612ExpiredSignature",
      "inputs": [
        {
          "name": "deadline",
          "type": "uint256",
          "internalType": "uint256"
        }
      ]
    },
    {
      "type": "error",
      "name": "ERC2612InvalidSigner",
      "inputs": [
        {
          "name": "signer",
          "type": "address",
          "internalType": "address"
        },
        {
          "name": "owner",
          "type": "address",
          "internalType": "address"
        }
      ]
    },
    {
      "type": "error",
      "name": "EnforcedPause",
      "inputs": []
    },
    {
      "type": "error",
      "name": "ExpectedPause",
      "inputs": []
    },
    {
      "type": "error",
      "name": "InvalidAccountNonce",
      "inputs": [
        {
          "name": "account",
          "type": "address",
          "internalType": "address"
        },
        {
          "name": "currentNonce",
          "type": "uint256",
          "internalType": "uint256"
        }
      ]
    },
    {
      "type": "error",
      "name": "InvalidShortString",
      "inputs": []
    },
    {
      "type": "error",
      "name": "OwnableInvalidOwner",
      "inputs": [
        {
          "name": "owner",
          "type": "address",
          "internalType": "address"
        }
      ]
    },
    {
      "type": "error",
      "name": "OwnableUnauthorizedAccount",
      "inputs": [
        {
          "name": "account",
          "type": "address",
          "internalType": "address"
        }
      ]
    },
    {
      "type": "error",
      "name": "StringTooLong",
      "inputs": [
        {
          "name": "str",
          "type": "string",
          "internalType": "string"
        }
      ]
    }
  ],
  "bytecode": {
    "object": "0x61018060405273cac524bca292aaade2df8a05cc58f0a65b1b3bb9600a5f6101000a81548173ffffffffffffffffffffffffffffffffffffffff021916908373ffffffffffffffffffffffffffffffffffffffff1602179055506100676102c260201b60201c565b600a6100739190610615565b600b55348015610081575f5ffd5b50604051614ba5380380614ba583398181016040528101906100a39190610830565b84806040518060400160405280600181526020017f310000000000000000000000000000000000000000000000000000000000000081525088888881600390816100ed9190610af8565b5080600490816100fd9190610af8565b5050505f73ffffffffffffffffffffffffffffffffffffffff168173ffffffffffffffffffffffffffffffffffffffff1603610170575f6040517f1e4fbdf70000000000000000000000000000000000000000000000000000000081526004016101679190610bd6565b60405180910390fd5b61017f816102ca60201b60201c565b5061019460068361038f60201b90919060201c565b61012081815250506101b060078261038f60201b90919060201c565b6101408181525050818051906020012060e08181525050808051906020012061010081815250504660a081815250506101ed6103dc60201b60201c565b608081815250503073ffffffffffffffffffffffffffffffffffffffff1660c08173ffffffffffffffffffffffffffffffffffffffff1681525050505050600a5f9054906101000a900473ffffffffffffffffffffffffffffffffffffffff1673ffffffffffffffffffffffffffffffffffffffff166101608173ffffffffffffffffffffffffffffffffffffffff168152505082600c8190555081426102949190610bef565b60108190555080600e81905550600e54600c546102b19190610c4f565b600f81905550505050505050610df2565b5f6012905090565b5f600560019054906101000a900473ffffffffffffffffffffffffffffffffffffffff16905081600560016101000a81548173ffffffffffffffffffffffffffffffffffffffff021916908373ffffffffffffffffffffffffffffffffffffffff1602179055508173ffffffffffffffffffffffffffffffffffffffff168173ffffffffffffffffffffffffffffffffffffffff167f8be0079c531659141344cd1fd0a4f28419497f9722a3daafe3b4186f6b6457e060405160405180910390a35050565b5f6020835110156103b0576103a98361043660201b60201c565b90506103d6565b826103c08361049b60201b60201c565b5f0190816103ce9190610af8565b5060ff5f1b90505b92915050565b5f7f8b73c3c69bb8fe3d512ecc4cf759cc79239f7b179b0ffacaa9a75d522b39400f60e05161010051463060405160200161041b959493929190610ca6565b60405160208183030381529060405280519060200120905090565b5f5f829050601f8151111561048257826040517f305a27a90000000000000000000000000000000000000000000000000000000081526004016104799190610d3f565b60405180910390fd5b80518161048e90610d8c565b5f1c175f1b915050919050565b5f819050919050565b7f4e487b71000000000000000000000000000000000000000000000000000000005f52601160045260245ffd5b5f8160011c9050919050565b5f5f8291508390505b600185111561052657808604811115610502576105016104a4565b5b60018516156105115780820291505b808102905061051f856104d1565b94506104e6565b94509492505050565b5f8261053e57600190506105f9565b8161054b575f90506105f9565b8160018114610561576002811461056b5761059a565b60019150506105f9565b60ff84111561057d5761057c6104a4565b5b8360020a915084821115610594576105936104a4565b5b506105f9565b5060208310610133831016604e8410600b84101617156105cf5782820a9050838111156105ca576105c96104a4565b5b6105f9565b6105dc84848460016104dd565b925090508184048111156105f3576105f26104a4565b5b81810290505b9392505050565b5f819050919050565b5f60ff82169050919050565b5f61061f82610600565b915061062a83610609565b92506106577fffffffffffffffffffffffffffffffffffffffffffffffffffffffffffffffff848461052f565b905092915050565b5f604051905090565b5f5ffd5b5f5ffd5b5f73ffffffffffffffffffffffffffffffffffffffff82169050919050565b5f61069982610670565b9050919050565b6106a98161068f565b81146106b3575f5ffd5b50565b5f815190506106c4816106a0565b92915050565b5f5ffd5b5f5ffd5b5f601f19601f8301169050919050565b7f4e487b71000000000000000000000000000000000000000000000000000000005f52604160045260245ffd5b610718826106d2565b810181811067ffffffffffffffff82111715610737576107366106e2565b5b80604052505050565b5f61074961065f565b9050610755828261070f565b919050565b5f67ffffffffffffffff821115610774576107736106e2565b5b61077d826106d2565b9050602081019050919050565b8281835e5f83830152505050565b5f6107aa6107a58461075a565b610740565b9050828152602081018484840111156107c6576107c56106ce565b5b6107d184828561078a565b509392505050565b5f82601f8301126107ed576107ec6106ca565b5b81516107fd848260208601610798565b91505092915050565b61080f81610600565b8114610819575f5ffd5b50565b5f8151905061082a81610806565b92915050565b5f5f5f5f5f5f60c0878903121561084a57610849610668565b5b5f61085789828a016106b6565b965050602087015167ffffffffffffffff8111156108785761087761066c565b5b61088489828a016107d9565b955050604087015167ffffffffffffffff8111156108a5576108a461066c565b5b6108b189828a016107d9565b94505060606108c289828a0161081c565b93505060806108d389828a0161081c565b92505060a06108e489828a0161081c565b9150509295509295509295565b5f81519050919050565b7f4e487b71000000000000000000000000000000000000000000000000000000005f52602260045260245ffd5b5f600282049050600182168061093f57607f821691505b602082108103610952576109516108fb565b5b50919050565b5f819050815f5260205f209050919050565b5f6020601f8301049050919050565b5f82821b905092915050565b5f600883026109b47fffffffffffffffffffffffffffffffffffffffffffffffffffffffffffffffff82610979565b6109be8683610979565b95508019841693508086168417925050509392505050565b5f819050919050565b5f6109f96109f46109ef84610600565b6109d6565b610600565b9050919050565b5f819050919050565b610a12836109df565b610a26610a1e82610a00565b848454610985565b825550505050565b5f5f905090565b610a3d610a2e565b610a48818484610a09565b505050565b5b81811015610a6b57610a605f82610a35565b600181019050610a4e565b5050565b601f821115610ab057610a8181610958565b610a8a8461096a565b81016020851015610a99578190505b610aad610aa58561096a565b830182610a4d565b50505b505050565b5f82821c905092915050565b5f610ad05f1984600802610ab5565b1980831691505092915050565b5f610ae88383610ac1565b9150826002028217905092915050565b610b01826108f1565b67ffffffffffffffff811115610b1a57610b196106e2565b5b610b248254610928565b610b2f828285610a6f565b5f60209050601f831160018114610b60575f8415610b4e578287015190505b610b588582610add565b865550610bbf565b601f198416610b6e86610958565b5f5b82811015610b9557848901518255600182019150602085019450602081019050610b70565b86831015610bb25784890151610bae601f891682610ac1565b8355505b6001600288020188555050505b505050505050565b610bd08161068f565b82525050565b5f602082019050610be95f830184610bc7565b92915050565b5f610bf982610600565b9150610c0483610600565b9250828201905080821115610c1c57610c1b6104a4565b5b92915050565b7f4e487b71000000000000000000000000000000000000000000000000000000005f52601260045260245ffd5b5f610c5982610600565b9150610c6483610600565b925082610c7457610c73610c22565b5b828204905092915050565b5f819050919050565b610c9181610c7f565b82525050565b610ca081610600565b82525050565b5f60a082019050610cb95f830188610c88565b610cc66020830187610c88565b610cd36040830186610c88565b610ce06060830185610c97565b610ced6080830184610bc7565b9695505050505050565b5f82825260208201905092915050565b5f610d11826108f1565b610d1b8185610cf7565b9350610d2b81856020860161078a565b610d34816106d2565b840191505092915050565b5f6020820190508181035f830152610d578184610d07565b905092915050565b5f81519050919050565b5f819050602082019050919050565b5f610d838251610c7f565b80915050919050565b5f610d9682610d5f565b82610da084610d69565b9050610dab81610d78565b92506020821015610deb57610de67fffffffffffffffffffffffffffffffffffffffffffffffffffffffffffffffff83602003600802610979565b831692505b5050919050565b60805160a05160c05160e05161010051610120516101405161016051613d2e610e775f395f8181610776015281816108630152818161095601528181610b0401528181610c4801528181611083015261131001525f611f8301525f611f4801525f61227301525f61225201525f61191a01525f61197001525f6119990152613d2e5ff3fe6080604052600436106101d7575f3560e01c80635c9db1a6116101015780638da5cb5b11610094578063d505accf11610063578063d505accf14610605578063dd62ed3e1461062d578063efc3b5db14610669578063f2fde38b14610691576101d7565b80638da5cb5b1461054d57806395d89b4114610577578063a9059cbb146105a1578063c023f478146105dd576101d7565b80637ecebe00116100d05780637ecebe00146104a35780638456cb59146104df57806384b0196e146104f557806388996d5d14610525576101d7565b80635c9db1a61461041f57806370a0823114610429578063715018a61461046557806379cc67901461047b576101d7565b80633644e51511610179578063439f5ac211610148578063439f5ac2146103a157806352a5f1f8146103b7578063590e1ae3146103df5780635c975abb146103f5576101d7565b80633644e515146103115780633f4ba83a1461033b57806340c10f191461035157806342966c6814610379576101d7565b806318160ddd116101b557806318160ddd1461025757806322e669d31461028157806323b872dd146102ab578063313ce567146102e7576101d7565b806306fdde03146101db578063095ea7b31461020557806316c9925314610241575b5f5ffd5b3480156101e6575f5ffd5b506101ef6106b9565b6040516101fc91906129db565b60405180910390f35b348015610210575f5ffd5b5061022b60048036038101906102269190612a99565b610749565b6040516102389190612af1565b60405180910390f35b34801561024c575f5ffd5b5061025561076b565b005b348015610262575f5ffd5b5061026b61094b565b6040516102789190612b19565b60405180910390f35b34801561028c575f5ffd5b50610295610954565b6040516102a29190612b8d565b60405180910390f35b3480156102b6575f5ffd5b506102d160048036038101906102cc9190612ba6565b610978565b6040516102de9190612af1565b60405180910390f35b3480156102f2575f5ffd5b506102fb6109a6565b6040516103089190612c11565b60405180910390f35b34801561031c575f5ffd5b506103256109ae565b6040516103329190612c42565b60405180910390f35b348015610346575f5ffd5b5061034f6109bc565b005b34801561035c575f5ffd5b5061037760048036038101906103729190612a99565b6109ce565b005b348015610384575f5ffd5b5061039f600480360381019061039a9190612c5b565b6109e4565b005b3480156103ac575f5ffd5b506103b56109f8565b005b3480156103c2575f5ffd5b506103dd60048036038101906103d89190612ced565b610a09565b005b3480156103ea575f5ffd5b506103f3610b01565b005b348015610400575f5ffd5b50610409610d74565b6040516104169190612af1565b60405180910390f35b610427610d89565b005b348015610434575f5ffd5b5061044f600480360381019061044a9190612d3d565b610efb565b60405161045c9190612b19565b60405180910390f35b348015610470575f5ffd5b50610479610f40565b005b348015610486575f5ffd5b506104a1600480360381019061049c9190612a99565b610f53565b005b3480156104ae575f5ffd5b506104c960048036038101906104c49190612d3d565b610f73565b6040516104d69190612b19565b60405180910390f35b3480156104ea575f5ffd5b506104f3610f84565b005b348015610500575f5ffd5b50610509610f96565b60405161051c9796959493929190612e68565b60405180910390f35b348015610530575f5ffd5b5061054b60048036038101906105469190612c5b565b61103b565b005b348015610558575f5ffd5b506105616111ec565b60405161056e9190612eea565b60405180910390f35b348015610582575f5ffd5b5061058b611215565b60405161059891906129db565b60405180910390f35b3480156105ac575f5ffd5b506105c760048036038101906105c29190612a99565b6112a5565b6040516105d49190612af1565b60405180910390f35b3480156105e8575f5ffd5b5061060360048036038101906105fe9190612c5b565b6112c7565b005b348015610610575f5ffd5b5061062b60048036038101906106269190612f2d565b61144c565b005b348015610638575f5ffd5b50610653600480360381019061064e9190612fca565b611591565b6040516106609190612b19565b60405180910390f35b348015610674575f5ffd5b5061068f600480360381019061068a9190613134565b611613565b005b34801561069c575f5ffd5b506106b760048036038101906106b29190612d3d565b611670565b005b6060600380546106c8906131a8565b80601f01602080910402602001604051908101604052809291908181526020018280546106f4906131a8565b801561073f5780601f106107165761010080835404028352916020019161073f565b820191905f5260205f20905b81548152906001019060200180831161072257829003601f168201915b5050505050905090565b5f5f6107536116f4565b90506107608185856116fb565b600191505092915050565b61077361170d565b5f7f000000000000000000000000000000000000000000000000000000000000000073ffffffffffffffffffffffffffffffffffffffff166370a08231306040518263ffffffff1660e01b81526004016107cd9190612eea565b602060405180830381865afa1580156107e8573d5f5f3e3d5ffd5b505050506040513d601f19601f8201168201806040525081019061080c91906131ec565b9050600d54600c5461081e9190613244565b811015610860576040517f08c379a0000000000000000000000000000000000000000000000000000000008152600401610857906132e7565b60405180910390fd5b5f7f000000000000000000000000000000000000000000000000000000000000000073ffffffffffffffffffffffffffffffffffffffff166323b872dd306108a66111ec565b856040518463ffffffff1660e01b81526004016108c593929190613305565b6020604051808303815f875af11580156108e1573d5f5f3e3d5ffd5b505050506040513d601f19601f820116820180604052508101906109059190613364565b905080610947576040517f08c379a000000000000000000000000000000000000000000000000000000000815260040161093e906133d9565b60405180910390fd5b5050565b5f600254905090565b7f000000000000000000000000000000000000000000000000000000000000000081565b5f5f6109826116f4565b905061098f858285611794565b61099a858585611827565b60019150509392505050565b5f6012905090565b5f6109b7611917565b905090565b6109c461170d565b6109cc6119cd565b565b6109d661170d565b6109e08282611a2e565b5050565b6109f56109ef6116f4565b82611aad565b50565b60105442610a0691906133f7565b50565b5f610a12611b2c565b90505f73ffffffffffffffffffffffffffffffffffffffff168173ffffffffffffffffffffffffffffffffffffffff1603610a82576040517f08c379a0000000000000000000000000000000000000000000000000000000008152600401610a7990613474565b60405180910390fd5b8073ffffffffffffffffffffffffffffffffffffffff163373ffffffffffffffffffffffffffffffffffffffff1614610af0576040517f08c379a0000000000000000000000000000000000000000000000000000000008152600401610ae790613502565b60405180910390fd5b610afb848484611b54565b50505050565b5f7f000000000000000000000000000000000000000000000000000000000000000073ffffffffffffffffffffffffffffffffffffffff166370a08231306040518263ffffffff1660e01b8152600401610b5b9190612eea565b602060405180830381865afa158015610b76573d5f5f3e3d5ffd5b505050506040513d601f19601f82011682018060405250810190610b9a91906131ec565b9050601054421015610be1576040517f08c379a0000000000000000000000000000000000000000000000000000000008152600401610bd89061356a565b60405180910390fd5b600d54600c54610bf19190613244565b811015610c33576040517f08c379a0000000000000000000000000000000000000000000000000000000008152600401610c2a906135f8565b60405180910390fd5b5f5f90505b601280549050811015610d70575f7f000000000000000000000000000000000000000000000000000000000000000073ffffffffffffffffffffffffffffffffffffffff166323b872dd3060128581548110610c9757610c96613616565b5b905f5260205f20015f9054906101000a900473ffffffffffffffffffffffffffffffffffffffff16600f546040518463ffffffff1660e01b8152600401610ce093929190613305565b6020604051808303815f875af1158015610cfc573d5f5f3e3d5ffd5b505050506040513d601f19601f82011682018060405250810190610d209190613364565b905080610d62576040517f08c379a0000000000000000000000000000000000000000000000000000000008152600401610d59906133d9565b60405180910390fd5b508080600101915050610c38565b5050565b5f60055f9054906101000a900460ff16905090565b5f60095f9054906101000a900473ffffffffffffffffffffffffffffffffffffffff1673ffffffffffffffffffffffffffffffffffffffff16638204b67a6040518163ffffffff1660e01b8152600401602060405180830381865afa158015610df4573d5f5f3e3d5ffd5b505050506040513d601f19601f82011682018060405250810190610e189190613688565b6fffffffffffffffffffffffffffffffff1690505f60095f9054906101000a900473ffffffffffffffffffffffffffffffffffffffff1673ffffffffffffffffffffffffffffffffffffffff16637b43155d836040518263ffffffff1660e01b815260040160206040518083038185885af1158015610e99573d5f5f3e3d5ffd5b50505050506040513d601f19601f82011682018060405250810190610ebe91906136c7565b90508067ffffffffffffffff167faf85c45054cc6ace54fd32bf32160453bdb05445dac92ec7642cf715993414d660405160405180910390a25050565b5f5f5f8373ffffffffffffffffffffffffffffffffffffffff1673ffffffffffffffffffffffffffffffffffffffff1681526020019081526020015f20549050919050565b610f4861170d565b610f515f611dd2565b565b610f6582610f5f6116f4565b83611794565b610f6f8282611aad565b5050565b5f610f7d82611e97565b9050919050565b610f8c61170d565b610f94611edd565b565b5f6060805f5f5f6060610fa7611f3f565b610faf611f7a565b46305f5f1b5f67ffffffffffffffff811115610fce57610fcd613010565b5b604051908082528060200260200182016040528015610ffc5781602001602082028036833780820191505090505b507f0f00000000000000000000000000000000000000000000000000000000000000959493929190965096509650965096509650965090919293949596565b601054421115611080576040517f08c379a00000000000000000000000000000000000000000000000000000000081526004016110779061356a565b60405180910390fd5b5f7f000000000000000000000000000000000000000000000000000000000000000073ffffffffffffffffffffffffffffffffffffffff166323b872dd3330600f54866110cd91906136f2565b6040518463ffffffff1660e01b81526004016110eb93929190613305565b6020604051808303815f875af1158015611107573d5f5f3e3d5ffd5b505050506040513d601f19601f8201168201806040525081019061112b9190613364565b90508061116d576040517f08c379a0000000000000000000000000000000000000000000000000000000008152600401611164906133d9565b60405180910390fd5b5f5f90505b828110156111e757601233908060018154018082558091505060019003905f5260205f20015f9091909190916101000a81548173ffffffffffffffffffffffffffffffffffffffff021916908373ffffffffffffffffffffffffffffffffffffffff1602179055508080600101915050611172565b505050565b5f600560019054906101000a900473ffffffffffffffffffffffffffffffffffffffff16905090565b606060048054611224906131a8565b80601f0160208091040260200160405190810160405280929190818152602001828054611250906131a8565b801561129b5780601f106112725761010080835404028352916020019161129b565b820191905f5260205f20905b81548152906001019060200180831161127e57829003601f168201915b5050505050905090565b5f5f6112af6116f4565b90506112bc818585611827565b600191505092915050565b5f8111611309576040517f08c379a00000000000000000000000000000000000000000000000000000000081526004016113009061377d565b60405180910390fd5b5f8190505f7f000000000000000000000000000000000000000000000000000000000000000073ffffffffffffffffffffffffffffffffffffffff166323b872dd3330866040518463ffffffff1660e01b815260040161136b93929190613305565b6020604051808303815f875af1158015611387573d5f5f3e3d5ffd5b505050506040513d601f19601f820116820180604052508101906113ab9190613364565b9050806113ed576040517f08c379a00000000000000000000000000000000000000000000000000000000081526004016113e4906133d9565b60405180910390fd5b6113f73383611a2e565b3373ffffffffffffffffffffffffffffffffffffffff167fecff3543bb8ca0a939367e5645294287fb85ce7d59d27291ef56e60b7c93d4b3848460405161143f92919061379b565b60405180910390a2505050565b8342111561149157836040517f627913020000000000000000000000000000000000000000000000000000000081526004016114889190612b19565b60405180910390fd5b5f7f6e71edae12b1b97f4d1f60370fef10105fa2faae0126114a169c64845d6126c98888886114bf8c611fb5565b896040516020016114d5969594939291906137c2565b6040516020818303038152906040528051906020012090505f6114f782612008565b90505f61150682878787612021565b90508973ffffffffffffffffffffffffffffffffffffffff168173ffffffffffffffffffffffffffffffffffffffff161461157a57808a6040517f4b800e46000000000000000000000000000000000000000000000000000000008152600401611571929190613821565b60405180910390fd5b6115858a8a8a6116fb565b50505050505050505050565b5f60015f8473ffffffffffffffffffffffffffffffffffffffff1673ffffffffffffffffffffffffffffffffffffffff1681526020019081526020015f205f8373ffffffffffffffffffffffffffffffffffffffff1673ffffffffffffffffffffffffffffffffffffffff1681526020019081526020015f2054905092915050565b61161b61170d565b806011908161162a91906139df565b50806040516116399190613ae8565b60405180910390207fd9363746646083f57846d945af7f07723629c94f1b15bfe8ea307a93f599538d60405160405180910390a250565b61167861170d565b5f73ffffffffffffffffffffffffffffffffffffffff168173ffffffffffffffffffffffffffffffffffffffff16036116e8575f6040517f1e4fbdf70000000000000000000000000000000000000000000000000000000081526004016116df9190612eea565b60405180910390fd5b6116f181611dd2565b50565b5f33905090565b611708838383600161204f565b505050565b6117156116f4565b73ffffffffffffffffffffffffffffffffffffffff166117336111ec565b73ffffffffffffffffffffffffffffffffffffffff1614611792576117566116f4565b6040517f118cdaa70000000000000000000000000000000000000000000000000000000081526004016117899190612eea565b60405180910390fd5b565b5f61179f8484611591565b90507fffffffffffffffffffffffffffffffffffffffffffffffffffffffffffffffff8110156118215781811015611812578281836040517ffb8f41b200000000000000000000000000000000000000000000000000000000815260040161180993929190613afe565b60405180910390fd5b61182084848484035f61204f565b5b50505050565b5f73ffffffffffffffffffffffffffffffffffffffff168373ffffffffffffffffffffffffffffffffffffffff1603611897575f6040517f96c6fd1e00000000000000000000000000000000000000000000000000000000815260040161188e9190612eea565b60405180910390fd5b5f73ffffffffffffffffffffffffffffffffffffffff168273ffffffffffffffffffffffffffffffffffffffff1603611907575f6040517fec442f050000000000000000000000000000000000000000000000000000000081526004016118fe9190612eea565b60405180910390fd5b61191283838361221e565b505050565b5f7f000000000000000000000000000000000000000000000000000000000000000073ffffffffffffffffffffffffffffffffffffffff163073ffffffffffffffffffffffffffffffffffffffff1614801561199257507f000000000000000000000000000000000000000000000000000000000000000046145b156119bf577f000000000000000000000000000000000000000000000000000000000000000090506119ca565b6119c761222e565b90505b90565b6119d56122c3565b5f60055f6101000a81548160ff0219169083151502179055507f5db9ee0a495bf2e6ff9c91a7834c1ba4fdd244a5e8aa4e537bd38aeae4b073aa611a176116f4565b604051611a249190612eea565b60405180910390a1565b5f73ffffffffffffffffffffffffffffffffffffffff168273ffffffffffffffffffffffffffffffffffffffff1603611a9e575f6040517fec442f05000000000000000000000000000000000000000000000000000000008152600401611a959190612eea565b60405180910390fd5b611aa95f838361221e565b5050565b5f73ffffffffffffffffffffffffffffffffffffffff168273ffffffffffffffffffffffffffffffffffffffff1603611b1d575f6040517f96c6fd1e000000000000000000000000000000000000000000000000000000008152600401611b149190612eea565b60405180910390fd5b611b28825f8361221e565b5050565b5f60095f9054906101000a900473ffffffffffffffffffffffffffffffffffffffff16905090565b5f5f90505f6012805480602002602001604051908101604052809291908181526020018280548015611bd857602002820191905f5260205f20905b815f9054906101000a900473ffffffffffffffffffffffffffffffffffffffff1673ffffffffffffffffffffffffffffffffffffffff1681526020019060010190808311611b8f575b505050505090505b601380549050600e5414611dcb578180611bf990613b33565b9250505f81518484604051602001611c12929190613baf565b604051602081830303815290604052805190602001205f1c611c349190613c07565b90505f73ffffffffffffffffffffffffffffffffffffffff16828281518110611c6057611c5f613616565b5b602002602001015173ffffffffffffffffffffffffffffffffffffffff1603611c895750611be0565b6013828281518110611c9e57611c9d613616565b5b6020026020010151908060018154018082558091505060019003905f5260205f20015f9091909190916101000a81548173ffffffffffffffffffffffffffffffffffffffff021916908373ffffffffffffffffffffffffffffffffffffffff1602179055503073ffffffffffffffffffffffffffffffffffffffff16828281518110611d2d57611d2c613616565b5b602002602001015173ffffffffffffffffffffffffffffffffffffffff167f40acd6abb56d95082f929b5d3b0181b188b07966edb831bf2067b7f9e1bc4e2460405160405180910390a35f828281518110611d8b57611d8a613616565b5b602002602001019073ffffffffffffffffffffffffffffffffffffffff16908173ffffffffffffffffffffffffffffffffffffffff168152505050611be0565b5050505050565b5f600560019054906101000a900473ffffffffffffffffffffffffffffffffffffffff16905081600560016101000a81548173ffffffffffffffffffffffffffffffffffffffff021916908373ffffffffffffffffffffffffffffffffffffffff1602179055508173ffffffffffffffffffffffffffffffffffffffff168173ffffffffffffffffffffffffffffffffffffffff167f8be0079c531659141344cd1fd0a4f28419497f9722a3daafe3b4186f6b6457e060405160405180910390a35050565b5f60085f8373ffffffffffffffffffffffffffffffffffffffff1673ffffffffffffffffffffffffffffffffffffffff1681526020019081526020015f20549050919050565b611ee5612303565b600160055f6101000a81548160ff0219169083151502179055507f62e78cea01bee320cd4e420270b5ea74000d11b0c9f74754ebdbfc544b05a258611f286116f4565b604051611f359190612eea565b60405180910390a1565b6060611f7560067f000000000000000000000000000000000000000000000000000000000000000061234490919063ffffffff16565b905090565b6060611fb060077f000000000000000000000000000000000000000000000000000000000000000061234490919063ffffffff16565b905090565b5f60085f8373ffffffffffffffffffffffffffffffffffffffff1673ffffffffffffffffffffffffffffffffffffffff1681526020019081526020015f205f815480929190600101919050559050919050565b5f61201a612014611917565b836123f1565b9050919050565b5f5f5f5f61203188888888612431565b9250925092506120418282612518565b829350505050949350505050565b5f73ffffffffffffffffffffffffffffffffffffffff168473ffffffffffffffffffffffffffffffffffffffff16036120bf575f6040517fe602df050000000000000000000000000000000000000000000000000000000081526004016120b69190612eea565b60405180910390fd5b5f73ffffffffffffffffffffffffffffffffffffffff168373ffffffffffffffffffffffffffffffffffffffff160361212f575f6040517f94280d620000000000000000000000000000000000000000000000000000000081526004016121269190612eea565b60405180910390fd5b8160015f8673ffffffffffffffffffffffffffffffffffffffff1673ffffffffffffffffffffffffffffffffffffffff1681526020019081526020015f205f8573ffffffffffffffffffffffffffffffffffffffff1673ffffffffffffffffffffffffffffffffffffffff1681526020019081526020015f20819055508015612218578273ffffffffffffffffffffffffffffffffffffffff168473ffffffffffffffffffffffffffffffffffffffff167f8c5be1e5ebec7d5bd14f71427d1e84f3dd0314c0f7b2291e5b200ac8c7c3b9258460405161220f9190612b19565b60405180910390a35b50505050565b61222983838361267a565b505050565b5f7f8b73c3c69bb8fe3d512ecc4cf759cc79239f7b179b0ffacaa9a75d522b39400f7f00000000000000000000000000000000000000000000000000000000000000007f000000000000000000000000000000000000000000000000000000000000000046306040516020016122a8959493929190613c37565b60405160208183030381529060405280519060200120905090565b6122cb610d74565b612301576040517f8dfc202b00000000000000000000000000000000000000000000000000000000815260040160405180910390fd5b565b61230b610d74565b15612342576040517fd93c066500000000000000000000000000000000000000000000000000000000815260040160405180910390fd5b565b606060ff5f1b83146123605761235983612692565b90506123eb565b81805461236c906131a8565b80601f0160208091040260200160405190810160405280929190818152602001828054612398906131a8565b80156123e35780601f106123ba576101008083540402835291602001916123e3565b820191905f5260205f20905b8154815290600101906020018083116123c657829003601f168201915b505050505090505b92915050565b5f6040517f190100000000000000000000000000000000000000000000000000000000000081528360028201528260228201526042812091505092915050565b5f5f5f7f7fffffffffffffffffffffffffffffff5d576e7357a4501ddfe92f46681b20a0845f1c111561246d575f60038592509250925061250e565b5f6001888888886040515f81526020016040526040516124909493929190613c88565b6020604051602081039080840390855afa1580156124b0573d5f5f3e3d5ffd5b5050506020604051035190505f73ffffffffffffffffffffffffffffffffffffffff168173ffffffffffffffffffffffffffffffffffffffff1603612501575f60015f5f1b9350935093505061250e565b805f5f5f1b935093509350505b9450945094915050565b5f600381111561252b5761252a613ccb565b5b82600381111561253e5761253d613ccb565b5b0315612676576001600381111561255857612557613ccb565b5b82600381111561256b5761256a613ccb565b5b036125a2576040517ff645eedf00000000000000000000000000000000000000000000000000000000815260040160405180910390fd5b600260038111156125b6576125b5613ccb565b5b8260038111156125c9576125c8613ccb565b5b0361260d57805f1c6040517ffce698f70000000000000000000000000000000000000000000000000000000081526004016126049190612b19565b60405180910390fd5b6003808111156126205761261f613ccb565b5b82600381111561263357612632613ccb565b5b0361267557806040517fd78bce0c00000000000000000000000000000000000000000000000000000000815260040161266c9190612c42565b60405180910390fd5b5b5050565b612682612303565b61268d838383612704565b505050565b60605f61269e8361291d565b90505f602067ffffffffffffffff8111156126bc576126bb613010565b5b6040519080825280601f01601f1916602001820160405280156126ee5781602001600182028036833780820191505090505b5090508181528360208201528092505050919050565b5f73ffffffffffffffffffffffffffffffffffffffff168373ffffffffffffffffffffffffffffffffffffffff1603612754578060025f82825461274891906133f7565b92505081905550612822565b5f5f5f8573ffffffffffffffffffffffffffffffffffffffff1673ffffffffffffffffffffffffffffffffffffffff1681526020019081526020015f20549050818110156127dd578381836040517fe450d38c0000000000000000000000000000000000000000000000000000000081526004016127d493929190613afe565b60405180910390fd5b8181035f5f8673ffffffffffffffffffffffffffffffffffffffff1673ffffffffffffffffffffffffffffffffffffffff1681526020019081526020015f2081905550505b5f73ffffffffffffffffffffffffffffffffffffffff168273ffffffffffffffffffffffffffffffffffffffff1603612869578060025f82825403925050819055506128b3565b805f5f8473ffffffffffffffffffffffffffffffffffffffff1673ffffffffffffffffffffffffffffffffffffffff1681526020019081526020015f205f82825401925050819055505b8173ffffffffffffffffffffffffffffffffffffffff168373ffffffffffffffffffffffffffffffffffffffff167fddf252ad1be2c89b69c2b068fc378daa952ba7f163c4a11628f55a4df523b3ef836040516129109190612b19565b60405180910390a3505050565b5f5f60ff835f1c169050601f811115612962576040517fb3512b0c00000000000000000000000000000000000000000000000000000000815260040160405180910390fd5b80915050919050565b5f81519050919050565b5f82825260208201905092915050565b8281835e5f83830152505050565b5f601f19601f8301169050919050565b5f6129ad8261296b565b6129b78185612975565b93506129c7818560208601612985565b6129d081612993565b840191505092915050565b5f6020820190508181035f8301526129f381846129a3565b905092915050565b5f604051905090565b5f5ffd5b5f5ffd5b5f73ffffffffffffffffffffffffffffffffffffffff82169050919050565b5f612a3582612a0c565b9050919050565b612a4581612a2b565b8114612a4f575f5ffd5b50565b5f81359050612a6081612a3c565b92915050565b5f819050919050565b612a7881612a66565b8114612a82575f5ffd5b50565b5f81359050612a9381612a6f565b92915050565b5f5f60408385031215612aaf57612aae612a04565b5b5f612abc85828601612a52565b9250506020612acd85828601612a85565b9150509250929050565b5f8115159050919050565b612aeb81612ad7565b82525050565b5f602082019050612b045f830184612ae2565b92915050565b612b1381612a66565b82525050565b5f602082019050612b2c5f830184612b0a565b92915050565b5f819050919050565b5f612b55612b50612b4b84612a0c565b612b32565b612a0c565b9050919050565b5f612b6682612b3b565b9050919050565b5f612b7782612b5c565b9050919050565b612b8781612b6d565b82525050565b5f602082019050612ba05f830184612b7e565b92915050565b5f5f5f60608486031215612bbd57612bbc612a04565b5b5f612bca86828701612a52565b9350506020612bdb86828701612a52565b9250506040612bec86828701612a85565b9150509250925092565b5f60ff82169050919050565b612c0b81612bf6565b82525050565b5f602082019050612c245f830184612c02565b92915050565b5f819050919050565b612c3c81612c2a565b82525050565b5f602082019050612c555f830184612c33565b92915050565b5f60208284031215612c7057612c6f612a04565b5b5f612c7d84828501612a85565b91505092915050565b5f67ffffffffffffffff82169050919050565b612ca281612c86565b8114612cac575f5ffd5b50565b5f81359050612cbd81612c99565b92915050565b612ccc81612c2a565b8114612cd6575f5ffd5b50565b5f81359050612ce781612cc3565b92915050565b5f5f5f60608486031215612d0457612d03612a04565b5b5f612d1186828701612caf565b9350506020612d2286828701612a52565b9250506040612d3386828701612cd9565b9150509250925092565b5f60208284031215612d5257612d51612a04565b5b5f612d5f84828501612a52565b91505092915050565b5f7fff0000000000000000000000000000000000000000000000000000000000000082169050919050565b612d9c81612d68565b82525050565b612dab81612a2b565b82525050565b5f81519050919050565b5f82825260208201905092915050565b5f819050602082019050919050565b612de381612a66565b82525050565b5f612df48383612dda565b60208301905092915050565b5f602082019050919050565b5f612e1682612db1565b612e208185612dbb565b9350612e2b83612dcb565b805f5b83811015612e5b578151612e428882612de9565b9750612e4d83612e00565b925050600181019050612e2e565b5085935050505092915050565b5f60e082019050612e7b5f83018a612d93565b8181036020830152612e8d81896129a3565b90508181036040830152612ea181886129a3565b9050612eb06060830187612b0a565b612ebd6080830186612da2565b612eca60a0830185612c33565b81810360c0830152612edc8184612e0c565b905098975050505050505050565b5f602082019050612efd5f830184612da2565b92915050565b612f0c81612bf6565b8114612f16575f5ffd5b50565b5f81359050612f2781612f03565b92915050565b5f5f5f5f5f5f5f60e0888a031215612f4857612f47612a04565b5b5f612f558a828b01612a52565b9750506020612f668a828b01612a52565b9650506040612f778a828b01612a85565b9550506060612f888a828b01612a85565b9450506080612f998a828b01612f19565b93505060a0612faa8a828b01612cd9565b92505060c0612fbb8a828b01612cd9565b91505092959891949750929550565b5f5f60408385031215612fe057612fdf612a04565b5b5f612fed85828601612a52565b9250506020612ffe85828601612a52565b9150509250929050565b5f5ffd5b5f5ffd5b7f4e487b71000000000000000000000000000000000000000000000000000000005f52604160045260245ffd5b61304682612993565b810181811067ffffffffffffffff8211171561306557613064613010565b5b80604052505050565b5f6130776129fb565b9050613083828261303d565b919050565b5f67ffffffffffffffff8211156130a2576130a1613010565b5b6130ab82612993565b9050602081019050919050565b828183375f83830152505050565b5f6130d86130d384613088565b61306e565b9050828152602081018484840111156130f4576130f361300c565b5b6130ff8482856130b8565b509392505050565b5f82601f83011261311b5761311a613008565b5b813561312b8482602086016130c6565b91505092915050565b5f6020828403121561314957613148612a04565b5b5f82013567ffffffffffffffff81111561316657613165612a08565b5b61317284828501613107565b91505092915050565b7f4e487b71000000000000000000000000000000000000000000000000000000005f52602260045260245ffd5b5f60028204905060018216806131bf57607f821691505b6020821081036131d2576131d161317b565b5b50919050565b5f815190506131e681612a6f565b92915050565b5f6020828403121561320157613200612a04565b5b5f61320e848285016131d8565b91505092915050565b7f4e487b71000000000000000000000000000000000000000000000000000000005f52601160045260245ffd5b5f61324e82612a66565b915061325983612a66565b925082820390508181111561327157613270613217565b5b92915050565b7f436f6e74726163742042616c616e6365206e6f742079657420726561636865645f8201527f20546f74616c20416d6f756e7400000000000000000000000000000000000000602082015250565b5f6132d1602d83612975565b91506132dc82613277565b604082019050919050565b5f6020820190508181035f8301526132fe816132c5565b9050919050565b5f6060820190506133185f830186612da2565b6133256020830185612da2565b6133326040830184612b0a565b949350505050565b61334381612ad7565b811461334d575f5ffd5b50565b5f8151905061335e8161333a565b92915050565b5f6020828403121561337957613378612a04565b5b5f61338684828501613350565b91505092915050565b7f5059555344207472616e73666572206661696c656400000000000000000000005f82015250565b5f6133c3601583612975565b91506133ce8261338f565b602082019050919050565b5f6020820190508181035f8301526133f0816133b7565b9050919050565b5f61340182612a66565b915061340c83612a66565b925082820190508082111561342457613423613217565b5b92915050565b7f456e74726f70792061646472657373206e6f74207365740000000000000000005f82015250565b5f61345e601783612975565b91506134698261342a565b602082019050919050565b5f6020820190508181035f83015261348b81613452565b9050919050565b7f4f6e6c7920456e74726f70792063616e2063616c6c20746869732066756e63745f8201527f696f6e0000000000000000000000000000000000000000000000000000000000602082015250565b5f6134ec602383612975565b91506134f782613492565b604082019050919050565b5f6020820190508181035f830152613519816134e0565b9050919050565b7f456e642054696d65207061737365642e000000000000000000000000000000005f82015250565b5f613554601083612975565b915061355f82613520565b602082019050919050565b5f6020820190508181035f83015261358181613548565b9050919050565b7f436f6e74726163742042616c616e6365206e6f74207265616368656420546f745f8201527f616c20416d6f756e740000000000000000000000000000000000000000000000602082015250565b5f6135e2602983612975565b91506135ed82613588565b604082019050919050565b5f6020820190508181035f83015261360f816135d6565b9050919050565b7f4e487b71000000000000000000000000000000000000000000000000000000005f52603260045260245ffd5b5f6fffffffffffffffffffffffffffffffff82169050919050565b61366781613643565b8114613671575f5ffd5b50565b5f815190506136828161365e565b92915050565b5f6020828403121561369d5761369c612a04565b5b5f6136aa84828501613674565b91505092915050565b5f815190506136c181612c99565b92915050565b5f602082840312156136dc576136db612a04565b5b5f6136e9848285016136b3565b91505092915050565b5f6136fc82612a66565b915061370783612a66565b925082820261371581612a66565b9150828204841483151761372c5761372b613217565b5b5092915050565b7f416d6f756e74206d757374206265203e203000000000000000000000000000005f82015250565b5f613767601283612975565b915061377282613733565b602082019050919050565b5f6020820190508181035f8301526137948161375b565b9050919050565b5f6040820190506137ae5f830185612b0a565b6137bb6020830184612b0a565b9392505050565b5f60c0820190506137d55f830189612c33565b6137e26020830188612da2565b6137ef6040830187612da2565b6137fc6060830186612b0a565b6138096080830185612b0a565b61381660a0830184612b0a565b979650505050505050565b5f6040820190506138345f830185612da2565b6138416020830184612da2565b9392505050565b5f819050815f5260205f209050919050565b5f6020601f8301049050919050565b5f82821b905092915050565b5f600883026138a47fffffffffffffffffffffffffffffffffffffffffffffffffffffffffffffffff82613869565b6138ae8683613869565b95508019841693508086168417925050509392505050565b5f6138e06138db6138d684612a66565b612b32565b612a66565b9050919050565b5f819050919050565b6138f9836138c6565b61390d613905826138e7565b848454613875565b825550505050565b5f5f905090565b613924613915565b61392f8184846138f0565b505050565b5b81811015613952576139475f8261391c565b600181019050613935565b5050565b601f8211156139975761396881613848565b6139718461385a565b81016020851015613980578190505b61399461398c8561385a565b830182613934565b50505b505050565b5f82821c905092915050565b5f6139b75f198460080261399c565b1980831691505092915050565b5f6139cf83836139a8565b9150826002028217905092915050565b6139e88261296b565b67ffffffffffffffff811115613a0157613a00613010565b5b613a0b82546131a8565b613a16828285613956565b5f60209050601f831160018114613a47575f8415613a35578287015190505b613a3f85826139c4565b865550613aa6565b601f198416613a5586613848565b5f5b82811015613a7c57848901518255600182019150602085019450602081019050613a57565b86831015613a995784890151613a95601f8916826139a8565b8355505b6001600288020188555050505b505050505050565b5f81905092915050565b5f613ac28261296b565b613acc8185613aae565b9350613adc818560208601612985565b80840191505092915050565b5f613af38284613ab8565b915081905092915050565b5f606082019050613b115f830186612da2565b613b1e6020830185612b0a565b613b2b6040830184612b0a565b949350505050565b5f613b3d82612bf6565b915060ff8203613b5057613b4f613217565b5b600182019050919050565b5f819050919050565b613b75613b7082612c2a565b613b5b565b82525050565b5f8160f81b9050919050565b5f613b9182613b7b565b9050919050565b613ba9613ba482612bf6565b613b87565b82525050565b5f613bba8285613b64565b602082019150613bca8284613b98565b6001820191508190509392505050565b7f4e487b71000000000000000000000000000000000000000000000000000000005f52601260045260245ffd5b5f613c1182612a66565b9150613c1c83612a66565b925082613c2c57613c2b613bda565b5b828206905092915050565b5f60a082019050613c4a5f830188612c33565b613c576020830187612c33565b613c646040830186612c33565b613c716060830185612b0a565b613c7e6080830184612da2565b9695505050505050565b5f608082019050613c9b5f830187612c33565b613ca86020830186612c02565b613cb56040830185612c33565b613cc26060830184612c33565b95945050505050565b7f4e487b71000000000000000000000000000000000000000000000000000000005f52602160045260245ffdfea2646970667358221220d97922e919a1baeb795e1aebd60f6b98ca5e459b42a070ce6ee7abdf87a8ca0364736f6c634300081e0033",
    "linkReferences": {}
  },
  "methodIdentifiers": {
    "DOMAIN_SEPARATOR()": "3644e515",
    "_entropyCallback(uint64,address,bytes32)": "52a5f1f8",
    "allowance(address,address)": "dd62ed3e",
    "approve(address,uint256)": "095ea7b3",
    "balanceOf(address)": "70a08231",
    "burn(uint256)": "42966c68",
    "burnFrom(address,uint256)": "79cc6790",
    "calculateResultRandomly()": "5c9db1a6",
    "decimals()": "313ce567",
    "eip712Domain()": "84b0196e",
    "getEndTime()": "439f5ac2",
    "launch(string)": "efc3b5db",
    "mint(address,uint256)": "40c10f19",
    "mintWithPYUSD(uint256)": "c023f478",
    "name()": "06fdde03",
    "nonces(address)": "7ecebe00",
    "owner()": "8da5cb5b",
    "pause()": "8456cb59",
    "paused()": "5c975abb",
    "permit(address,address,uint256,uint256,uint8,bytes32,bytes32)": "d505accf",
    "pyusd()": "22e669d3",
    "refund()": "590e1ae3",
    "renounceOwnership()": "715018a6",
    "stakeForAllotment(uint256)": "88996d5d",
    "symbol()": "95d89b41",
    "totalSupply()": "18160ddd",
    "transfer(address,uint256)": "a9059cbb",
    "transferFrom(address,address,uint256)": "23b872dd",
    "transferOwnership(address)": "f2fde38b",
    "unpause()": "3f4ba83a",
    "withdrawByOwnerAndRefund()": "16c99253"
  },
  "id": 46
}